{
  "contractName": "PaymentDetails",
  "abi": [
    {
      "anonymous": false,
      "inputs": [
        {
          "indexed": false,
          "internalType": "uint256",
          "name": "paymentId",
          "type": "uint256"
        },
        {
          "indexed": false,
          "internalType": "address",
          "name": "payer",
          "type": "address"
        },
        {
          "indexed": false,
          "internalType": "uint256",
          "name": "amount",
          "type": "uint256"
        },
        {
          "indexed": false,
          "internalType": "uint256",
          "name": "timestamp",
          "type": "uint256"
        }
      ],
      "name": "PaymentCreated",
      "type": "event"
    },
    {
      "inputs": [
        {
          "internalType": "uint256",
          "name": "",
          "type": "uint256"
        }
      ],
      "name": "payments",
      "outputs": [
        {
          "internalType": "uint256",
          "name": "paymentId",
          "type": "uint256"
        },
        {
          "internalType": "address",
          "name": "payer",
          "type": "address"
        },
        {
          "internalType": "uint256",
          "name": "amount",
          "type": "uint256"
        },
        {
          "internalType": "uint256",
          "name": "timestamp",
          "type": "uint256"
        }
      ],
      "stateMutability": "view",
      "type": "function"
    },
    {
      "inputs": [
        {
          "internalType": "address",
          "name": "_payer",
          "type": "address"
        },
        {
          "internalType": "uint256",
          "name": "_amount",
          "type": "uint256"
        }
      ],
      "name": "createPayment",
      "outputs": [],
      "stateMutability": "nonpayable",
      "type": "function"
    },
    {
      "inputs": [
        {
          "internalType": "uint256",
          "name": "_paymentId",
          "type": "uint256"
        }
      ],
      "name": "getPayment",
      "outputs": [
        {
          "internalType": "uint256",
          "name": "",
          "type": "uint256"
        },
        {
          "internalType": "address",
          "name": "",
          "type": "address"
        },
        {
          "internalType": "uint256",
          "name": "",
          "type": "uint256"
        },
        {
          "internalType": "uint256",
          "name": "",
          "type": "uint256"
        }
      ],
      "stateMutability": "view",
      "type": "function"
    },
    {
      "inputs": [
        {
          "internalType": "uint256",
          "name": "_paymentId",
          "type": "uint256"
        },
        {
          "internalType": "uint256",
          "name": "_newAmount",
          "type": "uint256"
        }
      ],
      "name": "updatePaymentAmount",
      "outputs": [],
      "stateMutability": "nonpayable",
      "type": "function"
    },
    {
      "inputs": [
        {
          "internalType": "uint256",
          "name": "_paymentId",
          "type": "uint256"
        }
      ],
      "name": "deletePayment",
      "outputs": [],
      "stateMutability": "nonpayable",
      "type": "function"
    }
  ],
  "bytecode": "0x608060405234801561001057600080fd5b50610828806100206000396000f3fe608060405234801561001057600080fd5b50600436106100575760003560e01c806306a669fc1461005c5780633280a8361461007857806387d81789146100ab578063a810c358146100de578063b99cc3b1146100fa575b600080fd5b610076600480360381019061007191906105a4565b610116565b005b610092600480360381019061008d91906105e4565b610230565b6040516100a2949392919061062f565b60405180910390f35b6100c560048036038101906100c091906105e4565b610345565b6040516100d5949392919061062f565b60405180910390f35b6100f860048036038101906100f39190610674565b6103a5565b005b610114600480360381019061010f91906105e4565b61045d565b005b6000808054905090506000429050600060405180608001604052808481526020018673ffffffffffffffffffffffffffffffffffffffff1681526020018581526020018381525090806001815401808255809150506001900390600052602060002090600402016000909190919091506000820151816000015560208201518160010160006101000a81548173ffffffffffffffffffffffffffffffffffffffff021916908373ffffffffffffffffffffffffffffffffffffffff160217905550604082015181600201556060820151816003015550507f6c23fabebe866e0b54591aeafeac12175f653dc7e660f6e5459b83d72c0cac7082858584604051610222949392919061062f565b60405180910390a150505050565b600080600080600080549050851061027d576040517f08c379a000000000000000000000000000000000000000000000000000000000815260040161027490610711565b60405180910390fd5b600080868154811061029257610291610731565b5b9060005260206000209060040201604051806080016040529081600082015481526020016001820160009054906101000a900473ffffffffffffffffffffffffffffffffffffffff1673ffffffffffffffffffffffffffffffffffffffff1673ffffffffffffffffffffffffffffffffffffffff16815260200160028201548152602001600382015481525050905080600001518160200151826040015183606001519450945094509450509193509193565b6000818154811061035557600080fd5b90600052602060002090600402016000915090508060000154908060010160009054906101000a900473ffffffffffffffffffffffffffffffffffffffff16908060020154908060030154905084565b60008054905082106103ec576040517f08c379a00000000000000000000000000000000000000000000000000000000081526004016103e390610711565b60405180910390fd5b6000811161042f576040517f08c379a0000000000000000000000000000000000000000000000000000000008152600401610426906107d2565b60405180910390fd5b806000838154811061044457610443610731565b5b9060005260206000209060040201600201819055505050565b60008054905081106104a4576040517f08c379a000000000000000000000000000000000000000000000000000000000815260040161049b90610711565b60405180910390fd5b600081815481106104b8576104b7610731565b5b90600052602060002090600402016000808201600090556001820160006101000a81549073ffffffffffffffffffffffffffffffffffffffff021916905560028201600090556003820160009055505050565b600080fd5b600073ffffffffffffffffffffffffffffffffffffffff82169050919050565b600061053b82610510565b9050919050565b61054b81610530565b811461055657600080fd5b50565b60008135905061056881610542565b92915050565b6000819050919050565b6105818161056e565b811461058c57600080fd5b50565b60008135905061059e81610578565b92915050565b600080604083850312156105bb576105ba61050b565b5b60006105c985828601610559565b92505060206105da8582860161058f565b9150509250929050565b6000602082840312156105fa576105f961050b565b5b60006106088482850161058f565b91505092915050565b61061a8161056e565b82525050565b61062981610530565b82525050565b60006080820190506106446000830187610611565b6106516020830186610620565b61065e6040830185610611565b61066b6060830184610611565b95945050505050565b6000806040838503121561068b5761068a61050b565b5b60006106998582860161058f565b92505060206106aa8582860161058f565b9150509250929050565b600082825260208201905092915050565b7f5061796d656e7420494420646f6573206e6f7420657869737400000000000000600082015250565b60006106fb6019836106b4565b9150610706826106c5565b602082019050919050565b6000602082019050818103600083015261072a816106ee565b9050919050565b7f4e487b7100000000000000000000000000000000000000000000000000000000600052603260045260246000fd5b7f4e657720616d6f756e74206d7573742062652067726561746572207468616e2060008201527f3000000000000000000000000000000000000000000000000000000000000000602082015250565b60006107bc6021836106b4565b91506107c782610760565b604082019050919050565b600060208201905081810360008301526107eb816107af565b905091905056fea26469706673582212202cd7c89774882548d9093b11897f710fcc37f421c97df44bd41b4cdc5f7968a464736f6c63430008130033",
  "immutableReferences": {},
  "source": "// SPDX-License-Identifier: MIT\npragma solidity ^0.8.19;\n\ncontract PaymentDetails {\n  struct Payment {\n    uint256 paymentId;\n    address payer;\n    uint256 amount;\n    uint256 timestamp;\n  }\n\n  Payment[] public payments;\n\n  event PaymentCreated(\n    uint256 paymentId,\n    address payer,\n    uint256 amount,\n    uint256 timestamp\n  );\n\n  function createPayment(address _payer, uint256 _amount) external {\n    uint256 paymentId = payments.length;\n    uint256 timestamp = block.timestamp;\n\n    payments.push(Payment(paymentId, _payer, _amount, timestamp));\n\n    emit PaymentCreated(paymentId, _payer, _amount, timestamp);\n  }\n\n  function getPayment(\n    uint256 _paymentId\n  ) external view returns (uint256, address, uint256, uint256) {\n    require(_paymentId < payments.length, 'Payment ID does not exist');\n\n    Payment memory payment = payments[_paymentId];\n    return (\n      payment.paymentId,\n      payment.payer,\n      payment.amount,\n      payment.timestamp\n    );\n  }\n\n  function updatePaymentAmount(\n    uint256 _paymentId,\n    uint256 _newAmount\n  ) external {\n    require(_paymentId < payments.length, 'Payment ID does not exist');\n    require(_newAmount > 0, 'New amount must be greater than 0');\n\n    payments[_paymentId].amount = _newAmount;\n  }\n\n  function deletePayment(uint256 _paymentId) external {\n    require(_paymentId < payments.length, 'Payment ID does not exist');\n\n    delete payments[_paymentId];\n  }\n}\n",
  "sourcePath": "/home/arnab/arnab-works/personal/blockchain/truffle_test/contracts/PaymentDetails.sol",
  "compiler": {
    "name": "solc",
    "version": "0.8.19+commit.7dd6d404.Emscripten.clang"
  },
  "schemaVersion": "3.4.16",
  "updatedAt": "2023-11-12T16:38:44.093Z",
  "devdoc": {
    "kind": "dev",
    "methods": {},
    "version": 1
  },
  "userdoc": {
    "kind": "user",
    "methods": {},
    "version": 1
  }
}